:020000040000FA
:060000000A128A11FC2F18
:100EF8008312031307158715881608140D30F2009E
:100F0800AF30F100B630F000F00B882FF10B882FCE
:100F1800F20B882F00008312031307118711881220
:100F2800081008008312031387140716081688147C
:100F38000230F2004530F100A930F000F00BA22F8A
:100F4800F10BA22FF20BA22FA92F831203138710E4
:100F58000712081288100800831203138815081551
:100F6800071487160D30F200AF30F100B630F000EC
:100F7800F00BBC2FF10BBC2FF20BBC2F000083121F
:100F8800031388110811071087120800831603132A
:100F980086018312031386018316031388018312C3
:100FA8000313880183160313870183120313870130
:100FB800FF30831603138500FF3083120313850067
:100FC8000A128A117C270A128A110A128A11962794
:100FD8000A128A110A128A11B0270A128A110A12F1
:100FE8008A1196270A128A11E42F0A128A110028F8
:080FF80083010A128A11CA2FBD
:02400E00FA3F77
:00000001FF
